:020000040800F2
:10000000C8320020F1170008011100080311000890
:100010000511000807110008091100080000000080
:100020000000000000000000000000000D110008AA
:100030000B110008000000000F110008111100084A
:100040003118000835180008391800083D18000854
:100050004118000845180008491800084D18000804
:100060005118000855180008591800085D180008B4
:100070006118000865180008691800086D18000864
:100080007118000875180008791800087D18000814
:100090008118000885180008891800088D180008C4
:1000A0009118000895180008991800089D18000874
:1000B000A118000813110008A9180008AD180008BD
:1000C000B1180008B5180008B9180008BD180008D4
:1000D000C11800087F11000827120008EF1100085E
:1000E000D1180008D5180008D9180008DD18000834
:1000F000E1180008E5180008E9180008ED180008E4
:10010000F1180008F5180008F9180008FD18000893
:10011000CF120008B7110008091900080D190008CE
:100120001119000815190008191900081D190008EF
:100130002119000825190008291900082D1900089F
:100140003119000835190008391900083D1900084F
:100150004119000845190008491900084D190008FF
:100160005119000855190008591900085D190008AF
:100170006119000865190008691900086D1900085F
:100180007119000875190008002203881A00A64B8F
:1001900098420ED0AA4B98420BD0B0F1804F08D0B5
:1001A000A24B984205D0A24B984202D0A14B984254
:1001B00004D14FF68F731A404B881A439E4B9842D6
:1001C00007D09E4B984204D04FF6FF431A400B894C
:1001D0001A4302804B68C3620B880385924B984296
:1001E00002D0974B984201D18B7A038601238382F8
:1001F0007047C9B2002904D0028852F08002028000
:1002000004E002884FF67F731A4002807047C9B23B
:10021000002904D0028852F00102028004E0028822
:100220004FF6FE731A400280704770B4002300241A
:100230000022058C4FF6FE7635400584058C2C0097
:1002400085882A00058B2B004FF68F752B404FF6C3
:10025000FC752B400D882B434FF6FD752C408D8986
:100260002C434D882C43704DA84202D0744DA842B7
:1002700013D14FF6F7752C40CD892C434FF6FB7503
:100280002C408D882C434FF6FF652A404FF6FF55D2
:100290002A400D8A2A434D8A2A43828003838D682F
:1002A0004563048470BC704770B4002300240022AE
:1002B000058C4FF6EF7635400584058C2C0085883B
:1002C0002A00058B2B0048F6FF752B404FF6FF45A3
:1002D0002B400D8853EA05234FF6DF752C408D899E
:1002E00054EA05144D8854EA05144F4DA84202D033
:1002F000534DA84217D14FF67F752C40CD8954EA53
:1003000005144FF6BF752C408D8854EA05144FF63E
:10031000FF352A404FF2FF752A400D8A52EA8502C6
:100320004D8A52EA8502828003838D688563048446
:1003300070BC704770B4002300240022058C4FF677
:10034000FF6635400584058C2C0085882A00858B46
:100350002B004FF68F752B404FF6FC752B400D8808
:100360002B434FF6FF552C408D8954EA05244D88C8
:1003700054EA05242C4DA84202D0314DA84217D191
:100380004FF2FF752C40CD8954EA05244FF6FF3516
:100390002C408D8854EA05244EF6FF752A404DF610
:1003A000FF752A400D8A52EA05124D8A52EA05125B
:1003B000828083838D68C563048470BC704770B489
:1003C000002300240022058C4EF6FF76354005847C
:1003D000058C2C0085882A00858B2B0048F6FF753C
:1003E0002B404FF6FF452B400D8853EA05234DF671
:1003F000FF752C408D8954EA05344D8854EA053444
:10040000094DA84202D00E4DA84205D14BF6FF750A
:100410002A400D8A52EA8512828083838D680564A2
:10042000048470BC704700000000014000040040DC
:1004300000080040000C0040001000400014004084
:10044000000401400022038B1A004FF6F7731A4094
:100450000A43028370470022038B1A004FF2FF7396
:100460001A4052EA0122028370470022838B1A004D
:100470004FF6F7731A400A43828370470022838B3A
:100480001A004FF2FF731A4052EA0122828370472A
:10049000C9B2002906D0B0F8442052F40042A0F8B6
:1004A000442005E0B0F844205204520CA0F8442047
:1004B0007047D2B2002A03D083890B43838102E0C4
:1004C00083898B438381704789B2CA430282704714
:1004D00030B40200002000230024158A0D402B00B8
:1004E00095890D402C009BB2002B05D0A4B2002CA6
:1004F00002D00125280001E000252800C0B230BC50
:10050000704789B2CA430282704710B450F8041B86
:1005100081B102681218001D50F8043BDC0744BF8B
:10052000A9F10104E31852F8044B43F8044B091FE6
:10053000F9D1EBE710BC704700B587B0012101206D
:1005400000F039FA0121102000F053FA07220A21A5
:10055000DFF8340300F0C5FA00208DF80A0001200E
:100560008DF80B0002208DF8080002208DF809009C
:1005700002208DF808004FF48060019001A9DFF897
:10058000080300F055FADFF8040303900020ADF8EB
:1005900010004FF40050ADF812004FF48060ADF839
:1005A00014000020ADF818000420ADF8160003A9CF
:1005B000DFF8DC0200F0C2FA4FF4A06000F0CAFBE2
:1005C00025208DF8000000208DF8010001208DF815
:1005D000020001208DF8030000A800F0C0FB0121FB
:1005E000DFF8AC0200F028FB012240F22551DFF8D1
:1005F000A00200F03EFB07B000BD00B587B00121AE
:10060000042000F0D8F901215FF4802000F0E2F925
:1006100007220B21DFF87C0200F063FA00208DF83E
:100620000B0002208DF8080002208DF809004FF41D
:100630000060019001A9DFF85C0200F0F9F95FF4B5
:10064000E13003900020ADF810000020ADF812005A
:100650000020ADF814000020ADF818000420ADF81B
:10066000160003A9DFF8300200F068FA27208DF8A1
:10067000000000208DF8010003208DF80200012009
:100680008DF8030000A800F06AFB0121DFF80802E2
:1006900000F0D2FA012240F22551DFF8FC0100F00F
:1006A000E8FA07B000BD00B587B00121082000F0CE
:1006B00082F901215FF4801000F08CF908220221F8
:1006C000DFF8D80100F00DFA00208DF80A000120B3
:1006D0008DF80B0002208DF8080002208DF809002B
:1006E0000420019001A9DFF8B40100F0A1F95FF442
:1006F000E13003900020ADF810000020ADF81200AA
:100700000020ADF814000020ADF818000420ADF86A
:10071000160003A9DFF8880100F010FA35208DF8E3
:10072000000001208DF8010002208DF80200012058
:100730008DF8030000A800F012FB0121DFF8600132
:1007400000F07AFA012240F22551DFF8540100F05E
:1007500090FA07B000BD00B597B00121012000F06C
:100760002AF901215FF4002000F034F901215FF43F
:10077000001000F020F908220021434800F0B1F9F0
:1007800008220121404800F0ACF900208DF80A0051
:1007900001208DF80B0002208DF808000120019047
:1007A00002208DF8090001A9374800F041F9022024
:1007B0008DF808000220019001A9334800F038F9B3
:1007C0004FF4614003900020ADF810000020ADF818
:1007D00012000020ADF814000020ADF818000C2025
:1007E000ADF8160003A92F4800F0A8F964200B907B
:1007F00000201290002013900020149000200F90F1
:100800004FF480600D900020109027480890002041
:10081000159000200E9000200C905FF40030119095
:100820005FF00060079040200A902048099007A9D7
:100830001F4800F0D3FA4FF4A06000F08BFA342088
:100840008DF8000000208DF8010001208DF80200D5
:1008500001208DF8030000A800F081FA012114485E
:1008600000F0E8FA012280210E4800F0F7F901219A
:100870000C4800F0E1F9012240F22551094800F04E
:10088000F8F917B000BD000000000240A08601008A
:10089000001001400008024000480040000C0240E7
:1008A00000500040004C0040044C0040500100202B
:1008B00070600240F0B400210022002302240025D1
:1008C0000226DFF84C713F6817F00C0739000F0063
:1008D000002F04D0042F06D0082F08D03CE0DFF80A
:1008E000387107603BE0DFF83471076037E0DFF80C
:1008F00024713F68C7F380573D00DFF818713F68E7
:1009000017F03F073E00002D0DD0DFF81071B7FB48
:10091000F6F7DFF800C1DCF800C0CCF3881C0CFB54
:1009200007F73B000CE0DFF8F070B7FBF6F7DFF8F5
:10093000E4C0DCF800C0CCF3881C0CFB07F73B00DC
:10094000DFF8D0703F68C7F301477F1C7F003C0091
:10095000B3FBF4F7076002E0DFF8BC700760DFF874
:10096000B0703F6817F0F00739000909DFF8B07080
:10097000CF5D3A000768D7404760DFF894703F6862
:1009800017F4E0573900890ADFF89470CF5D3A0018
:100990004768D7408760DFF878703F6817F4604792
:1009A0003900490BDFF87870CF5D3A004768D740CF
:1009B000C760F0BC7047C9B2002905D0194A126857
:1009C0000243184B1A6004E0164A12688243154B22
:1009D0001A607047C9B2002905D0134A1268024351
:1009E000114B1A6004E0104A126882430E4B1A60E1
:1009F0007047C9B2002905D00C4A126802430B4B5C
:100A00001A6004E0094A12688243084B1A60704772
:100A100008380240043802400024F40040787D0188
:100A20000000002030380240403802404438024084
:100A3000F0B400220023002400252A00102A4AD204
:100A4000012595402B000D681D402C009C4240D193
:100A5000056803261700FFB27F00BE40B54305605E
:100A600005680E791700FFB27F00BE403543056070
:100A70000D79012D02D00D79022D1AD1856803263A
:100A80001700FFB27F00BE40B543856085684E7990
:100A90001700FFB27F00BE403543856045680126E0
:100AA0009640B543456045688E799640B6B2354369
:100AB0004560C56803261700FFB27F00BE40B543FE
:100AC000C560C568CE791700FFB27F00BE403543D0
:100AD000C560521CB2E7F0BC704701837047418388
:100AE0007047F0B400230024D2B211F00705EDB234
:100AF000AD0012FA05F52B0089B2CD1010EB85057B
:100B000089B2CE1010EB8606366A0F2711F0070C5B
:100B10005FFA8CFC5FEA8C0C17FA0CF7BE432E626E
:100B200089B2CD1010EB85052D6A1D432C0089B2CA
:100B3000CD1010EB85052C62F0BC70472DE9F04319
:100B400085B004000D005FF00009002600275FF06B
:100B50000008A8890028208A814639F44059E8888D
:100B600050EA0909A4F81090A0898146314810EA9A
:100B70000909A888298908436989084350EA0909AD
:100B8000A4F80C90A08A814639F44079A88950EAEB
:100B90000909A4F8149000A8FFF78CFE23488442AA
:100BA00002D02348844202D10398060001E0029853
:100BB0000600A089000408D5192000FB06F029686A
:100BC0004900B0FBF1F0070007E0192000FB06F038
:100BD00029688900B0FBF1F007006420B7FBF0F052
:100BE000000181465FEA1910642101FB1070804604
:100BF000A08900040AD55FEAC80032306421B0FB46
:100C0000F1F010F0070050EA090909E05FEA081066
:100C100032306421B0FBF1F010F00F0050EA090906
:100C2000A4F8089005B0BDE8F08300000010014072
:100C300000140140F3E9FFFFC9B2002904D0828902
:100C400052F40052828104E082894DF6FF731A400B
:100C5000828170478088C005C00D7047D2B2002ADB
:100C600003D0838A0B43838202E0838A8B4383828F
:100C70007047F0B4002300240025002689B240F616
:100C80006A17B94206000F00FFB27F09FFB23B00AE
:100C900089B211F01F073C000127A7403D00012B3E
:100CA00001D10C3604E0022B01D1103600E01436DD
:100CB000D2B2002A03D037682F43376002E037688A
:100CC000AF433760F0BC70470200002089B2B1F535
:100CD000007F13880B4202D00123180001E000239B
:100CE0001800C0B2704770B4020000230025002431
:100CF000002089B240F66A16B1420E00F6B27609BB
:100D0000F6B2340089B211F01F063500012616FA3A
:100D100005F5012C02D19689354006E0022C02D15E
:100D2000168A354001E0968A354089B20E0AB6B27D
:100D30003300012616FA03F316883340002D04D041
:100D4000002B02D00126300001E000263000C0B2A6
:100D500070BC70471C4901431C4A11607047F0B4D5
:100D6000002300210F22C478002C21D0174C2468C6
:100D700014F4E064D4F5E064240A2300D3F10404FD
:100D80002100D2B21A4144788C4023008478144068
:100D900023431B0104780E4D6355047864110D4DF7
:100DA0000126077817F01F07BE4045F8246009E0C8
:100DB00004786411084D0126077817F01F07BE401C
:100DC00045F82460F0BC70470000FA050CED00E027
:100DD00000E400E000E100E080E100E010B4002267
:100DE00003681A001A4B1A400B68CC6823434C69FD
:100DF00023438C692343CC6923430C6A23434C6A05
:100E000023438C6A23434C6B23438C6B23431A4349
:100E1000026043691A00D208D200CB6A0C6B2343EC
:100E20001A4342610B6943604B6883608B68C360FF
:100E300010BC7047C9B2002904D0026852F0010208
:100E4000026003E00268520852000260704700002E
:100E50003F801CF000B585B001210220FFF7BAFDEC
:100E60004FF4A060FFF776FF1D208DF800000020F2
:100E70008DF8010001208DF8020001208DF803009B
:100E800000A8FFF76CFF40F6C41002905320ADF8A5
:100E900004000020ADF80C000020ADF8060001A908
:100EA0009248FFF771F901219048FFF70DFB0122ED
:100EB00001218E48FFF7FDFA01218C48FFF7A7F9C1
:100EC00005B000BD00B58BB001210220FFF791FDF8
:100ED00001210420FFF76FFD4FF470700090022095
:100EE0008DF8040003208DF8050000208DF8060021
:100EF00001208DF8070000A97D48FFF799FD032226
:100F000008217B48FFF7EDFD032209217848FFF710
:100F1000E8FD032206217648FFF7E3FD03220721BF
:100F20007348FFF7DEFD40F6C3100890A720ADF828
:100F30001C000020ADF824000020ADF81E0007A919
:100F40006C48FFF721F96020ADF808000120ADF8EA
:100F50000A000020ADF80C0040F2EE2004900020C2
:100F6000ADF814000820ADF816004FF48070ADF80D
:100F700018000020ADF81A0002A95E48FFF755F9E5
:100F800008215C48FFF75EFA0120ADF80A0040F244
:100F9000EE20049002A95748FFF786F9082155482A
:100FA000FFF759FA0120ADF80A0040F2EE20049054
:100FB00002A95048FFF7BEF908214E48FFF755FA3D
:100FC0000120ADF80A0040F2EE20049002A9494841
:100FD000FFF7F5F908214748FFF750FA0121454886
:100FE000FFF707F901214348FFF711F901214148B3
:100FF000FFF74EFA0BB000BD00B58BB00121012008
:10100000FFF7F7FC01210120FFF7D5FC4FF44070FA
:10101000009002208DF8040003208DF805000020C8
:101020008DF8060001208DF8070000A93248FFF76F
:10103000FFFC012208213048FFF753FD012209215E
:101040002D48FFF74EFD40F6C3100890A720ADF8DD
:101050001C000020ADF824000020ADF81E0007A9F8
:101060002648FFF791F86020ADF808000120ADF8A0
:101070000A000020ADF80C0040F2EE2004900020A1
:10108000ADF814000820ADF816004FF48070ADF8EC
:1010900018000020ADF81A0002A91848FFF7C5F89B
:1010A00008211648FFF7CEF90120ADF80A0040F2FA
:1010B000EE20049002A91148FFF7F6F808210F4826
:1010C000FFF7C9F90120ADF80A0040F2EE200490C4
:1010D00001210A48FFF78DF801210848FFF797F82A
:1010E00001210648FFF7D4F90BB000BD0004004011
:1010F00000080240000401400000024000000140DE
:101100007047FEE7FEE7FEE7FEE77047704770476F
:10111000704780B501217C48FFF7DAF900282DD00F
:1011200001217948FFF7EDF97848012101707848ED
:101130000078401C7649087076480078401C754954
:10114000087073480078082805DB73480121017096
:101150006F48002101706F48007864280EDB6F48EB
:10116000012101706E480078002801D1012000E0C3
:1011700000206B49087067480021017001BD80B5EF
:1011800008216848FFF7A0FD002802D06548FFF756
:1011900061FD40F225516348FFF7A5FD012809D103
:1011A0006048FFF757FD604908705F4801785F4865
:1011B00000F0E4F801BD80B508215D48FFF784FD2B
:1011C000002802D05A48FFF745FD40F22551584803
:1011D000FFF789FD002809D05548FFF73BFD554929
:1011E000087054480178544800F0C8F801BD80B533
:1011F00008215248FFF768FD002802D04F48FFF74A
:1012000029FD40F225514D48FFF76DFD002809D01A
:101210004A48FFF71FFD4A49087049480178494884
:1012200000F0ACF801BD80B508214748FFF74CFD40
:10123000002802D04448FFF70DFD40F225514248F6
:10124000FFF751FD002841D03F48FFF703FD3F491C
:1012500008703F480078002838D13E4800780028C0
:101260001BD13D4840783C4908703B483A49897851
:101270004170394835490978817037480078FA2833
:1012800024D135484078FF2820D13348807832284F
:101290001CD130480321017018E02E480078002846
:1012A00014D02C4800782C49284A127842542948F6
:1012B0000078401C2749087026480078292805DB5B
:1012C00024480021017022480121017001BD80B530
:1012D00008212248FFF7F8FC002802D01F48FFF73A
:1012E000B9FC40F225511D48FFF7FDFC012809D14A
:1012F0001A48FFF7AFFC1A490870194801781948D5
:1013000000F03CF801BD000000040040B5020020E0
:10131000BA020020B9020020B6020020B702002065
:10132000B802002000100140BB0200208C02002007
:1013300000500040BC020020640200200048004031
:10134000BD0200207802002000440040BE020020C0
:10135000B4020020BF020020D8000020004C004052
:10136000C002002050020020016092B25318436076
:101370008160C16002820023837470478268521CBE
:1013800043689A4202D1038A5B429A18C3689A4220
:1013900003D083681970826001E001238374704771
:1013A00080B54848006850F47000464908604648D7
:1013B000006850F001004449086044480021016081
:1013C00041480068424908403F4908604148424955
:1013D00001603D48006830F480203B4908603F4888
:1013E0000021016000F005F83D485FF000610160F8
:1013F00001BD82B0002001900020009032480068BA
:1014000050F48030304908602F48006810F40030F4
:1014100000900198401C01900098002803D1019889
:10142000B0F5A04FF0D128480068800302D5012014
:10143000009001E000200090009801283ED129484A
:10144000006850F08050274908602748006850F431
:101450004040254908601D481C49096801601B4837
:10146000006850F40040194908601848006850F4BA
:10147000A0501649086017481C49016012480068CE
:1014800050F08070104908600F4800688001FBD55B
:10149000174840F2057101600C4800688008800020
:1014A0000A4908600948006850F0020007490860CE
:1014B0000648006810F00C000828F9D102B0704707
:1014C0000000000088ED00E00038024008380240CB
:1014D000FFFFF6FE04380240103000240C380240B2
:1014E00008ED00E040380240007000401954400709
:1014F000003C024000B583B001210420FFF75BFAF5
:101500003020009001208DF8040000208DF80600A6
:1015100002208DF8050000208DF8070000A9DFF8F3
:10152000E400FFF785FA07BD00B583B00121032071
:10153000FFF741FA4020009001208DF804000020C0
:101540008DF8060002208DF8050000208DF80700B8
:1015500000A9DFF8B400FFF76BFA4FF48050009059
:1015600001208DF8040000208DF8060002208DF87F
:10157000050000208DF8070000A9DFF89000FFF7B4
:1015800057FA002000F004F8002000F01EF807BD14
:1015900010B50400E4B2002C0BD04FF48051DFF8FA
:1015A0006C00FFF79CFA4021DFF85C00FFF797FA28
:1015B0000AE04FF48051DFF85400FFF78EFA402123
:1015C000DFF84400FFF789FA10BD10B50400E4B25B
:1015D000002C0BD04FF48051DFF83000FFF77FFA7A
:1015E0004021DFF82400FFF778FA0AE04FF4805139
:1015F000DFF81800FFF771FA4021DFF80C00FFF761
:101600006CFA10BD000802400004024000000240D5
:101610000F480A2101800F480A2101800E480A2143
:1016200001800E480A2101800D480A2101800D48E1
:101630000A2101800C480A2101800C480A210180FE
:101640000B480A2101800B480A21018070470000E5
:10165000A0020020A2020020A4020020A602002076
:10166000A8020020AA020020AC020020AE02002046
:10167000B0020020B202002080B5FFF714F8322239
:10168000DFF82010DFF82000FFF76EFE01BD80B507
:10169000FEF7B3FF3222DFF81410DFF81400FFF773
:1016A00063FE01BDE8010020640200201C0200204E
:1016B0007802002080B54FF4A060FFF74BFBFFF7E6
:1016C00019FFFFF731FFFFF7C5FB00F00DF8FFF73B
:1016D000D3FFFFF7DCFF00F015F8FFF7F3FBFFF790
:1016E0008BFCFFF795FFFEE780B5FEF725FFC822CC
:1016F00002490348FFF738FE01BD0000100000203A
:101700008C02002080B5FFF726F83222DFF80C109B
:10171000DFF80C00FFF728FE01BD0000B401002037
:101720005002002010B5074979441831064C7C441A
:10173000163404E00A68081D511888470146A14282
:10174000F8D110BD2C0000004C00000050F8041B24
:1017500061B150F8042BD30744BFA9F101039A18D3
:10176000002342F8043B091FFAD1EFE7704700005D
:10177000DDFFFFFFB40200001000002000000000A9
:101780008BEDFFFF10000000F001000000000020C2
:10179000000000004EF68851CEF20001086840F4C7
:1017A000700008604FF00070E1EE100A7047000012
:1017B00000F009F8002801D0FFF7B4FF0020FFF780
:1017C00079FF00F002F80120704700F001B8000036
:1017D0000746384600F002F8FBE7000080B5C04637
:1017E000C046024A11001820ABBEFBE726000200EB
:1017F0000148804701480047A1130008011800086C
:10180000C046C046FFF7C6FFFFF7D2FFFFF778BC20
:10181000FFF777BCFFF776BCFFF775BCFFF774BC2A
:10182000FFF774BCFFF771BCFFF771BCFFF770BC2A
:10183000FFF7FEBFFFF7FEBFFFF7FEBFFFF7FEBFDC
:10184000FFF7FEBFFFF7FEBFFFF7FEBFFFF7FEBFCC
:10185000FFF7FEBFFFF7FEBFFFF7FEBFFFF7FEBFBC
:10186000FFF7FEBFFFF7FEBFFFF7FEBFFFF7FEBFAC
:10187000FFF7FEBFFFF7FEBFFFF7FEBFFFF7FEBF9C
:10188000FFF7FEBFFFF7FEBFFFF7FEBFFFF7FEBF8C
:10189000FFF7FEBFFFF7FEBFFFF7FEBFFFF7FEBF7C
:1018A000FFF7FEBFFFF735BCFFF7FEBFFFF7FEBF38
:1018B000FFF7FEBFFFF7FEBFFFF7FEBFFFF7FEBF5C
:1018C000FFF7FEBFFFF75BBCFFF7ADBCFFF78FBCB8
:1018D000FFF7FEBFFFF7FEBFFFF7FEBFFFF7FEBF3C
:1018E000FFF7FEBFFFF7FEBFFFF7FEBFFFF7FEBF2C
:1018F000FFF7FEBFFFF7FEBFFFF7FEBFFFF7FEBF1C
:10190000FFF7E5BCFFF757BCFFF7FEBFFFF7FEBFD1
:10191000FFF7FEBFFFF7FEBFFFF7FEBFFFF7FEBFFB
:10192000FFF7FEBFFFF7FEBFFFF7FEBFFFF7FEBFEB
:10193000FFF7FEBFFFF7FEBFFFF7FEBFFFF7FEBFDB
:10194000FFF7FEBFFFF7FEBFFFF7FEBFFFF7FEBFCB
:10195000FFF7FEBFFFF7FEBFFFF7FEBFFFF7FEBFBB
:10196000FFF7FEBFFFF7FEBFFFF7FEBFFFF7FEBFAB
:10197000FFF7FEBFFFF7FEBF0000000001020304F7
:08198000010203040607080937
:0400000508001801D6
:00000001FF
